:020000040000FA
:0200000003D427
:0200010003CE2C
:0200020003C336
:0200030003BC3C
:0200040003B344
:0200050003A94D
:0200060003A154
:02000700039B59
:02000800039360
:02000900038B67
:02000A0003846D
:02000B00037D73
:02000C0003747B
:02000D00036D81
:02000E00036687
:02000F0003618B
:02001000035695
:0200110003509A
:02001200034A9F
:020013000343A5
:02001400033CAB
:020015000337AF
:02001600032EB7
:02001700032ABA
:020018000323C0
:02001900031BC7
:02001A000315CC
:02001B00030DD3
:02001C000309D6
:02001D000303DB
:02001E0002FDE1
:02001F0002F6E7
:0200200002F0EC
:0200210002E9F2
:0200220002E3F7
:0200230002DEFB
:0200240002DAFE
:0200250002D106
:0200260002CD09
:0200270002C80D
:0200280002C212
:0200290002BE15
:02002A0002BA18
:02002B0002B41D
:02002C0002AE22
:02002D0002A926
:02002E0002A42A
:02002F00029E2F
:02003000029A32
:02003100029635
:02003200029139
:02003300028C3D
:02003400028642
:02003500028245
:02003600027E48
:0200370002794C
:02003800027450
:02003900026E55
:02003A00026959
:02003B0002665B
:02003C0002625E
:02003D00025D62
:02003E00025A64
:02003F00025667
:0200400002516B
:02004100024E6D
:02004200024674
:02004300024475
:02004400024078
:02004500023C7B
:0200460002397D
:02004700023580
:02004800023084
:02004900022B88
:02004A0002278B
:02004B0002258C
:02004C0002238D
:02004D00021B94
:02004E00021995
:02004F00021598
:0200500002129A
:02005100020E9D
:02005200020AA0
:020053000208A1
:020054000207A1
:020055000200A7
:0200560001FEA9
:0200570001FBAB
:0200580001F8AD
:0200590001F5AF
:02005A0001EFB4
:02005B0001EDB5
:02005C0001EBB6
:02005D0001E8B8
:02005E0001E3BC
:02005F0001DEC0
:0200600001DBC2
:0200610001D9C3
:0200620001D7C4
:0200630001D4C6
:0200640001D0C9
:0200650001CECA
:0200660001CBCC
:0200670001C8CE
:0200680001C6CF
:0200690001C2D2
:02006A0001BED5
:02006B0001BAD8
:02006C0001B9D8
:02006D0001B6DA
:02006E0001B3DC
:02006F0001B2DC
:0200700001B0DD
:0200710001ABE1
:0200720001AAE1
:0200730001A7E3
:0200740001A5E4
:0200750001A4E4
:02007600019FE8
:02007700019BEB
:020078000199EC
:020079000198EC
:02007A000194EF
:02007B000190F2
:02007C00018EF3
:02007D00018EF2
:02007E00018DF2
:02007F00018BF3
:020080000187F6
:020081000184F8
:020082000182F9
:020083000181F9
:02008400017FFA
:02008500017CFC
:020086000178FF
:020087000178FE
:020088000177FE
:020089000175FF
:02008A00016F04
:02008B00016E04
:02008C00016C05
:02008D00016907
:02008E00016807
:02008F00016608
:02009000016508
:02009100016309
:0200920001610A
:02009300015D0D
:02009400015A0F
:02009500015810
:0200960001580F
:0200970001570F
:02009800015411
:02009900015212
:02009A00015211
:02009B00014D15
:02009C00014A17
:02009D00014917
:02009E00014916
:02009F00014717
:0200A000014419
:0200A10001421A
:0200A20001411A
:0200A30001401A
:0200A400013E1B
:0200A500013D1B
:0200A600013D1A
:0200A700013A1C
:0200A80001381D
:0200A90001361E
:0200AA00013320
:0200AB00013121
:0200AC00013120
:0200AD00013020
:0200AE00012C23
:0200AF00012B23
:0200B000012924
:0200B100012824
:0200B200012724
:0200B300012525
:0200B400012524
:0200B500012325
:0200B600012027
:0200B700011D29
:0200B800011C29
:0200B900011A2A
:0200BA0001182B
:0200BB00011929
:0200BC00011829
:0200BD0001152B
:0200BE0001142B
:0200BF0001132B
:0200C00001112C
:0200C10001102C
:0200C20001102B
:0200C300010E2C
:0200C400010E2B
:0200C500010C2C
:0200C60001092E
:0200C70001072F
:0200C80001092C
:0200C900010331
:0200CA0001052E
:0200CB00010131
:0200CC00010130
:0200CD0001012F
:0200CE0001012E
:0200CF0000FE31
:0200D00000FA34
:0200D10000F934
:0200D20000F834
:0200D30000F734
:0200D40000F832
:0200D50000F831
:0200D60000F533
:0200D70000F433
:0200D80000F432
:0200D90000F134
:0200DA0000EF35
:0200DB0000EE35
:0200DC0000EE34
:0200DD0000EE33
:0200DE0000ED33
:0200DF0000EA35
:0200E00000E935
:0200E10000E934
:0200E20000E834
:0200E30000E833
:0200E40000E337
:0200E50000E237
:0200E60000E335
:0200E70000E433
:0200E80000E333
:0200E90000E035
:0200EA0000DF35
:0200EB0000DE35
:0200EC0000DB37
:0200ED0000DB36
:0200EE0000DD33
:0200EF0000D837
:0200F00000D935
:0200F10000D835
:0200F20000D735
:0200F30000D635
:0200F40000D535
:0200F50000D336
:0200F60000D236
:0200F70000D235
:0200F80000CF37
:0200F90000CE37
:0200FA0000CE36
:0200FB0000CE35
:0200FC0000CD35
:0200FD0000CC35
:0200FE0000CB35
:0200FF0000CA35
:02010000047188
:02010100046890
:02010200045F98
:020103000454A2
:02010400044AAB
:020105000442B2
:020106000437BC
:020107000430C2
:020108000428C9
:02010900041ED2
:02010A000415DA
:02010B00040CE2
:02010C000404E9
:02010D0003FDF0
:02010E0003F4F8
:02010F0003ECFF
:0201100003E505
:0201110003DE0B
:0201120003D315
:0201130003CE19
:0201140003C521
:0201150003BE27
:0201160003B430
:0201170003B033
:0201180003A53D
:02011900039F42
:02011A00039848
:02011B0003914E
:02011C00038955
:02011D00038459
:02011E00037E5E
:02011F00037566
:02012000036F6B
:02012100036A6F
:02012200036474
:02012300035A7D
:02012400035680
:02012500035085
:02012600034A8A
:0201270003448F
:02012800033E94
:0201290003369B
:02012A00032FA1
:02012B00032AA5
:02012C000323AB
:02012D00031FAE
:02012E000318B4
:02012F000311BA
:02013000030CBE
:020131000309C0
:0201320002FFCA
:0201330002FBCD
:0201340002F7D0
:0201350002F2D4
:0201360002EED7
:0201370002E8DC
:0201380002E1E2
:0201390002DBE7
:02013A0002D8E9
:02013B0002D3ED
:02013C0002CEF1
:02013D0002CBF3
:02013E0002C1FC
:02013F0002BDFF
:0201400002B902
:0201410002B406
:0201420002AF0A
:0201430002AA0E
:0201440002A710
:0201450002A412
:02014600029F16
:02014700029A1A
:0201480002961D
:0201490002931F
:02014A00028B26
:02014B00028729
:02014C0002822D
:02014D00027E30
:02014E00027934
:02014F00027735
:02015000027338
:02015100026F3B
:02015200026C3D
:02015300026741
:02015400026443
:02015500025D49
:02015600025A4B
:0201570002564E
:02015800025350
:02015900024F53
:02015A00024D54
:02015B00024858
:02015C0002455A
:02015D0002415D
:02015E00023E5F
:02015F00023A62
:02016000023665
:02016100023367
:02016200023168
:0201630002296F
:02016400022770
:02016500022571
:02016600022372
:02016700021E76
:0201680002197A
:0201690002167C
:02016A0002137E
:02016B0002117F
:02016C00020E81
:02016D00020B83
:02016E00020885
:02016F00020488
:02017000020388
:0201710001FE8D
:0201720001FB8F
:0201730001F990
:0201740001F692
:0201750001F196
:0201760001EE98
:0201770001EB9A
:0201780001E89C
:0201790001E59E
:02017A0001E2A0
:02017B0001E0A1
:02017C0001DCA4
:02017D0001DBA4
:02017E0001D8A6
:02017F0001D5A8
:0201800001D4A8
:0201810001D2A9
:0201820001CEAC
:0201830001C9B0
:0201840001C9AF
:0201850001C8AF
:0201860001C5B1
:0201870001C1B4
:0201880001BDB7
:0201890001BBB8
:02018A0001B9B9
:02018B0001B7BA
:02018C0001B5BB
:02018D0001B2BD
:02018E0001B1BD
:02018F0001AFBE
:0201900001AAC2
:0201910001A8C3
:0201920001A5C5
:0201930001A5C4
:0201940001A2C6
:02019500019EC9
:02019600019CCA
:02019700019BCA
:02019800019ACA
:020199000197CC
:02019A000196CC
:02019B000190D1
:02019C00018FD1
:02019D00018DD2
:02019E00018BD3
:02019F000189D4
:0201A0000187D5
:0201A1000187D4
:0201A2000183D7
:0201A3000181D8
:0201A400017FD9
:0201A500017CDB
:0201A600017ADC
:0201A700017ADB
:0201A8000179DB
:0201A9000176DD
:0201AA000174DE
:0201AB000172DF
:0201AC000170E0
:0201AD00016FE0
:0201AE000169E5
:0201AF000167E6
:0201B0000166E6
:0201B1000166E5
:0201B2000164E6
:0201B3000162E7
:0201B4000162E6
:0201B500015EE9
:0201B600015BEB
:0201B700015AEB
:0201B800015AEA
:0201B9000158EB
:0201BA000156EC
:0201BB000155EC
:0201BC000153ED
:0201BD000151EE
:0201BE00014EF0
:0201BF00014BF2
:0201C000014BF1
:0201C100014AF1
:0201C2000146F4
:0201C3000145F4
:0201C4000144F4
:0201C5000142F5
:0201C6000140F6
:0201C700013FF6
:0201C800013EF6
:0201C900013CF7
:0201CA00013BF7
:0201CB00013BF6
:0201CC000139F7
:0201CD000136F9
:0201CE000135F9
:0201CF000134F9
:0201D0000131FB
:0201D100012FFC
:0201D200012FFB
:0201D300012DFC
:0201D400012BFD
:0201D500012CFB
:0201D600012BFB
:0201D7000129FC
:0201D8000126FE
:0201D9000125FE
:0201DA000124FE
:0201DB000122FF
:0201DC000121FF
:0201DD00011E01
:0201DE00011C02
:0201DF00011B02
:0201E000011C00
:0201E100011DFE
:0201E200011802
:0201E300011603
:0201E400011503
:0201E500011304
:0201E600011303
:0201E700011203
:0201E800011103
:0201E900011003
:0201EA00011101
:0201EB00011001
:0201EC00010D03
:0201ED00010B04
:0201EE00010A04
:0201EF00010904
:0201F000010705
:0201F100010407
:0201F200010505
:0201F300010702
:0201F400010503
:0201F500010205
:0201F60000FF08
:0201F70000FE08
:0201F80000FF06
:0201F90000FE06
:0201FA0000FD06
:0201FB0000FB07
:0201FC0000FA07
:0201FD0000F808
:0201FE0000F708
:0201FF0000F806
:00000001ff
