:020000040000FA
:040000000B8AA3B60E
:040001000B84E23B4F
:040002000B7F285FE9
:040003000B797614EB
:040004000B73CB4768
:040005000B6E27E86F
:040006000B688BE711
:040007000B62F7345D
:040008000B5D69BF64
:040009000B57E37737
:04000A000B52644EE3
:04000B000B4CEC347A
:04000C000B477B190A
:04000D000B4210EFA3
:04000E000B3CADA753
:04000F000B37513228
:040010000B31FB8134
:040011000B2CAC8781
:040012000B2764351F
:040013000B22227D1D
:040014000B1CE75189
:040015000B17B2A46F
:040016000B128467DE
:040017000B0D5C8FE2
:040018000B083B0D89
:040019000B031FD4E2
:04001A000AFE0AD7F9
:04001B000AF8FC0AD9
:04001C000AF3F3618F
:04001D000AEEF0CE29
:04001E000AE9F445B2
:04001F000AE4FDBA38
:040020000AE00D21C4
:040021000ADB226E66
:040022000AD63D9528
:040023000AD15E8B15
:040024000ACC854439
:040025000AC7B1B4A1
:040026000AC2E3D156
:040027000ABE1B8F63
:040028000AB958E3D6
:040029000AB49BC2B8
:04002A000AAFE42213
:04002B000AAB31F7F4
:04002C000AA6853764
:04002D000AA1DDD86F
:04002E000A9D3BCF1D
:04002F000A989F127A
:040030000A94079790
:040031000A8F755469
:040032000A8AE83F0F
:040033000A86604E8B
:040034000A81DD77E9
:040035000A7D5FB130
:040036000A78E6F36B
:040037000A747332A2
:040038000A700466E0
:040039000A6B9A852F
:04003A000A67358696
:04003B000A62D5611F
:04003C000A5E7A0CD2
:04003D000A5A237EBA
:04003E000A55D1AFDF
:04003F000A51849648
:040040000A4D3C2AFF
:040041000A48F8630E
:040042000A44B9387B
:040043000A407EA24F
:040044000A3C489892
:040045000A3817114D
:040046000A33EA0689
:040047000A2FC16F4C
:040048000A2B9D439F
:040049000A277D7B8A
:04004A000A23620F14
:04004B000A1F4AF846
:04004C000A1B382E25
:04004D000A1729A8BD
:04004E000A131F6111
:04004F000A0F19502B
:040050000A0B176E12
:040051000A0719B4CD
:040052000A03201A63
:0400530009FF2A9ADD
:0400540009FB392D3E
:0400550009F74BCA92
:0400560009F3626DDB
:0400570009EF7D0D23
:0400580009EB9BA471
:0400590009E7BE2BCA
:04005A0009E3E49B37
:04005B0009E00EEFBB
:04005C0009DC3D1F5F
:04005D0009D86F252A
:04005E0009D4A4FA23
:04005F0009D0DE984E
:0400600009CD1BF9B2
:0400610009C95D1755
:0400620009C5A1EB40
:0400630009C1EA7075
:0400640009BE369EFD
:0400650009BA8671DD
:0400660009B6D9E21C
:0400670009B330EBBE
:0400680009AF8B87CA
:0400690009ABE9AF47
:04006A0009A84B5E38
:04006B0009A4B08EA6
:04006C0009A1193A93
:04006D00099D855C08
:04006E000999F4EE0A
:04006F00099667EB9C
:040070000992DE4EC5
:04007100098F58108B
:04007200098BD52DF4
:04007300098855A003
:040074000984D962C0
:04007500098160702D
:04007600097DEAC353
:04007700097A785634
:0400780009770925D6
:0400790009739D2B3F
:04007A000970346273
:04007B00096CCEC579
:04007C0009696C5052
:04007D0009660CFE06
:04007E000962B0CA99
:04007F00095F57AF0F
:04008000095C01A86E
:040081000958AEB0BC
:0400820009555EC4FA
:04008300095211DE2F
:04008400094EC7FA60
:04008500094B81138F
:0400860009483D24C4
:040087000944FC2A02
:040088000941BE204C
:04008900093E8301A8
:04008A00093B4AC81C
:04008B0009381573A8
:04008C000934E2FC55
:04008D000931B35F23
:04008E00092E869819
:04008F00092B5CA33A
:040090000928357B8B
:040091000925111D0F
:040092000921EF84CD
:04009300091ED0ACC6
:04009400091BB491FF
:0400950009189B307B
:040096000915848440
:040097000912708A50
:04009800090F5F3DB0
:04009900090C509965
:04009A000909449C70
:04009B0009063B40D7
:04009C00090334829E
:04009D000900305FC7
:04009E0008FD2ED358
:04009F0008FA2FDA52
:0400A00008F73370BA
:0400A10008F4399294
:0400A20008F1423CE3
:0400A30008EE4D6BAB
:0400A40008EB5B1BEF
:0400A50008E86B48B4
:0400A60008E57DF0FC
:0400A70008E2930ECA
:0400A80008DFAA9F24
:0400A90008DCC4A00B
:0400AA0008D9E10D83
:0400AB0008D6FFE391
:0400AC0008D4211F34
:0400AD0008D144BE74
:0400AE0008CE6ABB53
:0400AF0008CB9314D3
:0400B00008C8BDC6F9
:0400B10008C5EACDC7
:0400B20008C31A273E
:0400B30008C04BCF67
:0400B40008BD7FC440
:0400B50008BAB601CE
:0400B60008B7EE8415
:0400B70008B5294916
:0400B80008B2664ED6
:0400B90008AFA59057
:0400BA0008ACE70B9C
:0400BB0008AA2ABDA8
:0400BC0008A770A37E
:0400BD0008A4B8B922
:0400BE0008A202FD95
:0400BF00089F4F6CDB
:0400C000089C9E03F7
:0400C1000899EEBFED
:0400C2000897419EBC
:0400C3000894969C6B
:0400C4000891EDB7FB
:0400C500088F46EC6E
:0400C600088CA238C8
:0400C7000889FF980D
:0400C80008875F0B3B
:0400C9000884C08C5B
:0400CA000882241B69
:0400CB00087F89B26F
:0400CC00087CF1516A
:0400CD00087A5AF55E
:0400CE000877C69B4E
:0400CF00087534403C
:0400D0000872A3E12E
:0400D1000870157D21
:0400D200086D89111B
:0400D300086AFE9A1F
:0400D400086876162C
:0400D5000865EF8348
:0400D60008636ADD74
:0400D7000860E822B3
:0400D800085E675106
:0400D900085BE86672
:0400DA0008596B5FF7
:0400DB000856F03A99
:0400DC00085476F559
:0400DD000851FF8D3A
:0400DE00084F8A003D
:0400DF00084D164B67
:0400E000084AA46CBA
:0400E1000848346235
:0400E2000845C629DE
:0400E300084359C0B5
:0400E4000840EF23BE
:0400E500083E8652F9
:0400E600083C1F4A69
:0400E7000839BA0911
:0400E8000837568CF3
:0400E9000834F4D112
:0400EA00083294D66E
:0400EB000830369A09
:0400EC00082DDA19E8
:0400ED00082B7F520B
:0400EE000829264473
:0400EF000826CEEA27
:0400F0000824794522
:0400F100082225516B
:0400F200081FD30D03
:0400F300081D8276EC
:0400F400081B338B27
:0400F5000818E649B8
:0400F60008169AAF9F
:0400F700081450BBDE
:0400F8000812086A78
:0400F900080FC1BB70
:0400FA00080D7CACC5
:0400FB00080B393B7A
:0400FC000808F76693
:0400FD000806B72B0F
:0400FE0008047888F2
:0400FF0008023B7C3C
:0401000010000004E7
:040101000FF8EF2FD5
:040102000FF1E731E1
:040103000FEAE7F721
:040104000FE3F16FA5
:040105000FDD038780
:040106000FD61E2AC8
:040107000FCF41488D
:040108000FC86CCFE1
:040109000FC1A0ACD6
:04010A000FBADCCE7E
:04010B000FB42124E8
:04010C000FAD6D9D29
:04010D000FA6C2284F
:04010E000FA01EB46C
:04010F000F99833091
:040110000F92EF8DCE
:040111000F8C63BA32
:040112000F85DFA6D0
:040113000F7F6344B3
:040114000F78EE82F0
:040115000F72815193
:040116000F6C1BA2AD
:040117000F65BD674C
:040118000F5F668F80
:040119000F59170D56
:04011A000F52CED2E0
:04011B000F4C8DCF29
:04011C000F4653F641
:04011D000F40213935
:04011E000F39F58B15
:04011F000F33D0DCEE
:040120000F2DB320CC
:040121000F279C4ABE
:040122000F218C4BD2
:040123000F1B831615
:040124000F1580A093
:040125000F0F84DA5A
:040126000F098FB876
:040127000F03A12DF4
:040128000EFDB92DE2
:040129000EF7D7AB4B
:04012A000EF1FC9B3B
:04012B000EEC27F1BE
:04012C000EE659A1E1
:04012D000EE091A0AF
:04012E000EDACFE135
:04012F000ED514587D
:040130000ECF5EFB95
:040131000EC9AFBE86
:040132000EC406955C
:040133000EBE637623
:040134000EB8C656E5
:040135000EB32F29AD
:040136000EAD9DE588
:040137000EA8127F7D
:040138000EA28CEC9B
:040139000E9D0D22E8
:04013A000E97931772
:04013B000E921EC141
:04013C000E8CB01461
:04013D000E874708DA
:04013E000E81E391BA
:04013F000E7C85A706
:040140000E772D40C9
:040141000E71DA5110
:040142000E6C8CD2E1
:040143000E6744B847
:040144000E6201FB4B
:040145000E5CC491F7
:040146000E578C7153
:040147000E5259916A
:040148000E4D2BE944
:040149000E480370E9
:04014A000E42E01C65
:04014B000E3DC1E6BE
:04014C000E38A8C4FD
:04014D000E3394AE2B
:04014E000E2E859B51
:04014F000E297B8377
:040150000E24765EA5
:040151000E1F7622E5
:040152000E1A7AC93E
:040153000E158449B8
:040154000E10929B5C
:040155000E0BA5B632
:040156000E06BD9440
:040157000E01DA2B90
:040158000DFCFB752A
:040159000DF8216913
:04015A000DF34C0055
:04015B000DEE7B32F8
:04015C000DE9AEF902
:04015D000DE4E74B7B
:04015E000DE0242369
:04015F000DDB6578D7
:040160000DD6AB44C9
:040161000DD1F57F48
:040162000DCD442358
:040163000DC8972705
:040164000DC3EE8653
:040165000DBF4A3947
:040166000DBAAA38EC
:040167000DB60E7D46
:040168000DB177005E
:040169000DACE3BC3A
:04016A000DA854AADE
:04016B000DA3C9C354
:04016C000D9F43019F
:04016D000D9AC05DCA
:04016E000D9641D1D8
:04016F000D91C756D1
:040170000D8D50E7BA
:040171000D88DE7D9A
:040172000D84701177
:040173000D80059F57
:040174000D7B9F1F41
:040175000D773C8C3A
:040176000D72DDDF4A
:040177000D6E831472
:040178000D6A2C23BD
:040179000D65D9082F
:04017A000D6189BCCE
:04017B000D5D3E3A9E
:04017C000D58F67CA8
:04017D000D54B27CEF
:04017E000D50723678
:04017F000D4C35A24C
:040180000D47FCBD6E
:040181000D43C780E3
:040182000D3F95E6B2
:040183000D3B67E9E0
:040184000D373D8571
:040185000D3316B56B
:040186000D2EF372D5
:040187000D2AD3B8B2
:040188000D26B78108
:040189000D229EC9DC
:04018A000D1E898B32
:04018B000D1A77C111
:04018C000D1669677C
:04018D000D125E777A
:04018E000D0E56ED0F
:04018F000D0A52C43F
:040190000D0651F611
:040191000D02548186
:040192000CFE5A5DA8
:040193000CFA638877
:040194000CF66FFCFA
:040195000CF27FB435
:040196000CEE92AC2D
:040197000CEAA8E0E6
:040198000CE6C24B64
:040199000CE2DEE8AE
:04019A000CDEFEB3C6
:04019B000CDB21A7B1
:04019C000CD747C174
:04019D000CD370FC13
:04019E000CCF9D5392
:04019F000CCBCCC3F6
:0401A0000CC7FF4643
:0401A1000CC434DA7C
:0401A2000CC06D79A7
:0401A3000CBCA91FC8
:0401A4000CB8E7C9E3
:0401A5000CB52972FA
:0401A6000CB16E1614
:0401A7000CADB5B234
:0401A8000CAA00415C
:0401A9000CA64DBF94
:0401AA000CA29E28DD
:0401AB000C9EF1793C
:0401AC000C9B47ADB4
:0401AD000C97A0C14A
:0401AE000C93FCB002
:0401AF000C905B78DD
:0401B0000C8CBD14E2
:0401B1000C89218113
:0401B2000C8588BB75
:0401B3000C81F2BD0C
:0401B4000C7E5F86D8
:0401B5000C7ACF10E1
:0401B6000C77415829
:0401B7000C73B65BB4
:0401B8000C702E1683
:0401B9000C6CA8849E
:0401BA000C6925A205
:0401BB000C65A56DBD
:0401BC000C6227E1C9
:0401BD000C5EACFB2D
:0401BE000C5B34B7EB
:0401BF000C57BF1208
:0401C0000C544C0986
:0401C1000C50DB996A
:0401C2000C4D6DBDB6
:0401C3000C4A02736D
:0401C4000C4699B894
:0401C5000C4333882C
:0401C6000C3FCFE03B
:0401C7000C3C6EBDC1
:0401C8000C39101CC2
:0401C9000C35B3F945
:0401CA000C325A5247
:0401CB000C2F0323CF
:0401CC000C2BAE6AE0
:0401CD000C285C227C
:0401CE000C250C4AA6
:0401CF000C21BEDE63
:0401D0000C1E73DBB3
:0401D1000C1B2B3E9A
:0401D2000C17E5051C
:0401D3000C14A12C3B
:0401D4000C115FB0FB
:0401D5000C0E208F5D
:0401D6000C0AE3C666
:0401D7000C07A95117
:0401D8000C04712E74
:0401D9000C013B5A80
:0401DA000BFE07D33E
:0401DB000BFAD695B0
:0401DC000BF7A79ED8
:0401DD000BF47AEBBA
:0401DE000BF1507958
:0401DF000BEE2846B5
:0401E0000BEB024FD4
:0401E1000BE7DE92B8
:0401E2000BE4BD0A63
:0401E3000BE19DB7D8
:0401E4000BDE809519
:0401E5000BDB65A229
:0401E6000BD84CDB0B
:0401E7000BD5363EC0
:0401E8000BD221C84D
:0401E9000BCF0F76B3
:0401EA000BCBFF47F5
:0401EB000BC8F13715
:0401EC000BC5E54416
:0401ED000BC2DB6BFB
:0401EE000BBFD3ABC5
:0401EF000BBCCE0077
:0401F0000BB9CA6914
:0401F1000BB6C8E29F
:0401F2000BB3C96A18
:0401F3000BB0CBFF83
:0401F4000BADD09DE2
:0401F5000BAAD74238
:0401F6000BA7DFEC88
:0401F7000BA4EA99D2
:0401F8000BA1F74719
:0401F9000B9F05F360
:0401FA000B9C169BA9
:0401FB000B99293CF7
:0401FC000B963DD54C
:0401FD000B935463A9
:0401FE000B906CE412
:0401FF000B8D875687
:00000001ff
