:020000040000FA
:030000000A3AB108
:030001000A425759
:030002000A49F2B6
:030003000A517728
:030004000A58EEA9
:030005000A605638
:030006000A67ACDA
:030007000A6EF08E
:030008000A762550
:030009000A7D4C21
:03000A000A846203
:03000B000A8B68F5
:03000C000A9262F3
:03000D000A994B02
:03000E000AA02520
:03000F000AA6EF4F
:030010000AADB086
:030011000AB45ED0
:030012000ABAFE29
:030013000AC1918E
:030014000AC81700
:030015000ACE8D83
:030016000AD4FA0F
:030017000ADB54AD
:030018000AE1A456
:030019000AE7E80B
:03001A000AEE1FCC
:03001B000AF44A9A
:03001C000AFA6479
:03001D000B007461
:03001E000B067856
:03001F000B0C7156
:030020000B125D63
:030021000B183E7B
:030022000B1E139F
:030023000B23DBD1
:030024000B29970E
:030025000B2F4C52
:030026000B34F1A7
:030027000B3A8C05
:030028000B401D6D
:030029000B45A2E2
:03002A000B4B1B62
:03002B000B508CEB
:03002C000B55F37E
:03002D000B5B4E1C
:03002E000B609FC5
:03002F000B65E777
:030030000B6B2334
:030031000B7055FC
:030032000B757ECD
:030033000B7A9DA8
:030034000B7FB48B
:030035000B84C079
:030036000B89C172
:030037000B8EBB72
:030038000B93AB7C
:030039000B98938E
:03003A000B9D72A9
:03003B000BA245D0
:03003C000BA710FF
:03003D000BABD436
:03003E000BB08D77
:03003F000BB53EC0
:030040000BB9E811
:030041000BBE886B
:030042000BC324C9
:030043000BC7B236
:030044000BCC39A9
:030045000BD0B924
:030046000BD530A7
:030047000BD99F33
:030048000BDE08C4
:030049000BE2695E
:03004A000BE6C200
:03004B000BEB11AB
:03004C000BEF585F
:03004D000BF39E14
:03004E000BF7D6D7
:03004F000BFC099E
:030050000C00346D
:030051000C045844
:030052000C087621
:030053000C0C8B07
:030054000C1097F6
:030055000C14A3E5
:030056000C18A2E1
:030057000C1C9CE2
:030058000C208FEA
:030059000C247CF8
:03005A000C28650A
:03005B000C2C4327
:03005C000C301B4A
:03005D000C33ED74
:03005E000C37BBA1
:03005F000C3B83D4
:030060000C3F430F
:030061000C42FB53
:030062000C46AE9B
:030063000C4A5AEA
:030064000C4E033C
:030065000C51A398
:030066000C553EF8
:030067000C58D45E
:030068000C5C62CB
:030069000C5FED3C
:03006A000C6372B2
:03006B000C66F22E
:03006C000C6A69B2
:03006D000C6DDC3B
:03006E000C714AC8
:03006F000C74B15D
:030070000C7812F7
:030071000C7B7293
:030072000C7EC938
:030073000C821BE1
:030074000C85698F
:030075000C88AF45
:030076000C8BF4FC
:030077000C8F34B7
:030078000C926D7A
:030079000C959F44
:03007A000C98CF10
:03007B000C9BFBE0
:03007C000C9F20B6
:03007D000CA23E94
:03007E000CA55876
:03007F000CA86E5C
:030080000CAB8145
:030081000CAE9032
:030082000CB19826
:030083000CB49B1F
:030084000CB79A1C
:030085000CBA951D
:030086000CBD8E20
:030087000CC07E2C
:030088000CC36A3C
:030089000CC6534F
:03008A000CC93C62
:03008B000CCC1B7F
:03008C000CCEF7A0
:03008D000CD1D0C3
:03008E000CD4A3EC
:03008F000CD77219
:030090000CDA3D4A
:030091000CDD047F
:030092000CDFC7B9
:030093000CE288F4
:030094000CE54533
:030095000CE7FC79
:030096000CEAAEC3
:030097000CED5C11
:030098000CF00861
:030099000CF2B1B5
:03009A000CF55210
:03009B000CF7F56A
:03009C000CFA93C8
:03009D000CFD2B2C
:03009E000CFFBE96
:03009F000D024F00
:0300A0000D04DE6E
:0300A1000D0768E0
:0300A2000D09EE57
:0300A3000D0C70D1
:0300A4000D0EEF4F
:0300A5000D116BCF
:0300A6000D13E156
:0300A7000D1657DC
:0300A8000D18C967
:0300A9000D1B37F5
:0300AA000D1DA386
:0300AB000D200B1A
:0300AC000D226EB4
:0300AD000D24CD52
:0300AE000D272DEE
:0300AF000D298791
:0300B0000D2BDE37
:0300B1000D2E32DF
:0300B2000D30818D
:0300B3000D32D03B
:0300B4000D3518EF
:0300B5000D3760A4
:0300B6000D39A55C
:0300B7000D3BE816
:0300B8000D3E26D4
:0300B9000D406196
:0300BA000D429A5A
:0300BB000D44CD24
:0300BC000D46FEF0
:0300BD000D492FBB
:0300BE000D4B5B8C
:0300BF000D4D8460
:0300C0000D4FAB36
:0300C1000D51CF0F
:0300C2000D53EEED
:0300C3000D560DCA
:0300C4000D5827AD
:0300C5000D5A4091
:0300C6000D5C5777
:0300C7000D5E6C5F
:0300C8000D60794F
:0300C9000D628B3A
:0300CA000D649230
:0300CB000D669E21
:0300CC000D68A319
:0300CD000D6AA514
:0300CE000D6CA412
:0300CF000D6EA310
:0300D0000D70A20E
:0300D1000D729B12
:0300D2000D749119
:0300D3000D768522
:0300D4000D78752F
:0300D5000D7A623F
:0300D6000D7C504E
:0300D7000D7E3B60
:0300D8000D802177
:0300D9000D82088D
:0300DA000D83ECA7
:0300DB000D85CDC3
:0300DC000D87AAE3
:0300DD000D898505
:0300DE000D8B5E29
:0300DF000D8D374D
:0300E0000D8F0D74
:0300E1000D90DEA1
:0300E2000D92AFCD
:0300E3000D947CFD
:0300E4000D964C2A
:0300E5000D98165D
:0300E6000D99DC95
:0300E7000D9B9FCF
:0300E8000D9D6209
:0300E9000D9F2543
:0300EA000DA0E581
:0300EB000DA2A1C2
:0300EC000DA45E02
:0300ED000DA61746
:0300EE000DA7CA91
:0300EF000DA983D5
:0300F0000DAB3322
:0300F1000DACE46F
:0300F2000DAE92BE
:0300F3000DB03F0E
:0300F4000DB1E962
:0300F5000DB393B5
:0300F6000DB53A0B
:0300F7000DB6DD66
:0300F8000DB882BE
:0300F9000DBA231A
:0300FA000DBBC17A
:0300FB000DBD5DDB
:0300FC000DBEF83E
:0300FD000DC091A2
:0300FE000DC22907
:0300FF000DC3BE70
:0301000008EABA50
:0301010008F39A66
:0301020008FC688E
:03010300090525C6
:03010400090DCE14
:0301050009166177
:03010600091EE7E8
:030107000927576E
:03010800092FB507
:03010900093804AE
:03010A0009404168
:03010B0009486D33
:03010C0009508710
:03010D0009588FFF
:03010E00096088FD
:03010F000968710B
:030110000970482B
:0301110009780F5B
:03011200097FCB97
:03011300098770E9
:03011400098F0A46
:03011500099694B4
:03011600099E112E
:0301170009A579BE
:0301180009ACD956
:0301190009B42600
:03011A0009BB65B9
:03011B0009C29680
:03011C0009C9BA54
:03011D0009D0CE38
:03011E0009D7D32B
:03011F0009DECF27
:0301200009E5BB33
:0301210009EC974F
:0301220009F36876
:0301230009FA30A6
:030124000A00E4EA
:030125000A078E38
:030126000A0E2B93
:030127000A14BCFB
:030128000A1B406F
:030129000A21BAEE
:03012A000A282779
:03012B000A2E8712
:03012C000A34DCB6
:03012D000A3B2268
:03012E000A415F24
:03012F000A4792EA
:030130000A4DB7BE
:030131000A53CF9F
:030132000A59E285
:030133000A5FE57B
:030134000A65DC7D
:030135000A6BCA88
:030136000A71AC9F
:030137000A7785BF
:030138000A7D55E8
:030139000A831A1C
:03013A000A88D25E
:03013B000A8E80A9
:03013C000A9426FC
:03013D000A99BF5D
:03013E000A9F55C0
:03013F000AA4DC33
:030140000AAA58B0
:030141000AAFCD35
:030142000AB537C4
:030143000ABA995C
:030144000ABFEF00
:030145000AC53CAC
:030146000ACA8161
:030147000ACFBE1E
:030148000AD4F1E5
:030149000ADA1AB5
:03014A000ADF3F8A
:03014B000AE4576C
:03014C000AE96855
:03014D000AEE6F48
:03014E000AF36F42
:03014F000AF86447
:030150000AFD5154
:030151000B023866
:030152000B071484
:030153000B0BEBA8
:030154000B10B8D5
:030155000B158106
:030156000B1A3D44
:030157000B1EF488
:030158000B23A1D5
:030159000B284828
:03015A000B2CE685
:03015B000B317FE6
:03015C000B360D52
:03015D000B3A97C3
:03015E000B3F173D
:03015F000B4392BD
:030160000B480544
:030161000B4C71D3
:030162000B50D46B
:030163000B553603
:030164000B598CA8
:030165000B5DDA55
:030166000B622207
:030167000B6665BF
:030168000B6AA37C
:030169000B6ED842
:03016A000B73060E
:03016B000B772DE2
:03016C000B7B4EBC
:03016D000B7F699C
:03016E000B837D83
:03016F000B878D6E
:030170000B8B9363
:030171000B8F965B
:030172000B939359
:030173000B978760
:030174000B9B776B
:030175000B9F627B
:030176000BA34791
:030177000BA724AF
:030178000BAAFDD2
:030179000BAECFFB
:03017A000BB29C29
:03017B000BB6625E
:03017C000BBA2497
:03017D000BBDDFD8
:03017E000BC1941E
:03017F000BC54667
:030180000BC8EFBA
:030181000BCC9410
:030182000BD0356A
:030183000BD3D3C8
:030184000BD7672F
:030185000BDAF59D
:030186000BDE810C
:030187000BE20880
:030188000BE58BF9
:030189000BE90778
:03018A000BEC7DFE
:03018B000BEFEF88
:03018C000BF35B17
:03018D000BF6C4AA
:03018E000BFA2643
:03018F000BFD84E1
:030190000C00E17F
:030191000C043427
:030192000C0786D1
:030193000C0ACF84
:030194000C0E1638
:030195000C115AF0
:030196000C1498AE
:030197000C17D072
:030198000C1B033A
:030199000C1E3405
:03019A000C215FD6
:03019B000C248AA7
:03019C000C27AC81
:03019D000C2ACA5F
:03019E000C2DE540
:03019F000C30FA27
:0301A0000C340D0F
:0301A1000C371800
:0301A2000C3A23F1
:0301A3000C3D29E7
:0301A4000C402AE2
:0301A5000C4328E0
:0301A6000C4622E2
:0301A7000C4915EB
:0301A8000C4C05F7
:0301A9000C4EF306
:0301AA000C51DD18
:0301AB000C54C22F
:0301AC000C57A449
:0301AD000C5A8168
:0301AE000C5D5F86
:0301AF000C6035AC
:0301B0000C6307D6
:0301B1000C65D406
:0301B2000C689E38
:0301B3000C6B676B
:0301B4000C6E28A6
:0301B5000C70EAE1
:0301B6000C73A81F
:0301B7000C766162
:0301B8000C7914AB
:0301B9000C7BC6F6
:0301BA000C7E7543
:0301BB000C811F95
:0301BC000C83C7EA
:0301BD000C866B42
:0301BE000C890D9C
:0301BF000C8BACFA
:0301C0000C8E455D
:0301C1000C90DAC5
:0301C2000C93702B
:0301C3000C960097
:0301C4000C988C08
:0301C5000C9B167A
:0301C6000C9D9DF0
:0301C7000CA02069
:0301C8000CA29FE7
:0301C9000CA51D65
:0301CA000CA796E9
:0301CB000CAA0C6F
:0301CC000CAC7FF9
:0301CD000CAEF283
:0301CE000CB15F12
:0301CF000CB3C9A5
:0301D0000CB63238
:0301D1000CB898CF
:0301D2000CBAF86C
:0301D3000CBD5709
:0301D4000CBFB4A9
:0301D5000CC20B4E
:0301D6000CC460F6
:0301D7000CC6B49F
:0301D8000CC90649
:0301D9000CCB54F8
:0301DA000CCD9EAB
:0301DB000CCFE75F
:0301DC000CD22C16
:0301DD000CD470CF
:0301DE000CD6B18B
:0301DF000CD8EE4B
:0301E0000CDB270E
:0301E1000CDD5CD6
:0301E2000CDF959A
:0301E3000CE1C864
:0301E4000CE3F831
:0301E5000CE626FF
:0301E6000CE850D2
:0301E7000CEA78A7
:0301E8000CEC9D7F
:0301E9000CEEC158
:0301EA000CF0DF37
:0301EB000CF2FD16
:0301EC000CF51AF5
:0301ED000CF735D7
:0301EE000CF94BBE
:0301EF000CFB60A6
:0301F0000CFD7291
:0301F1000CFF847C
:0301F2000D01906C
:0301F3000D039762
:0301F4000D05A056
:0301F5000D07A84B
:0301F6000D09AE42
:0301F7000D0BB03D
:0301F8000D0DAD3D
:0301F9000D0FAA3D
:0301FA000D11A440
:0301FB000D139E43
:0301FC000D15944A
:0301FD000D178952
:0301FE000D197B5D
:0301FF000D1B696C
:00000001ff
